{
  "contractName": "TokenRecover",
  "abi": [
    {
      "anonymous": false,
      "inputs": [
        {
          "indexed": true,
          "internalType": "address",
          "name": "previousOwner",
          "type": "address"
        },
        {
          "indexed": true,
          "internalType": "address",
          "name": "newOwner",
          "type": "address"
        }
      ],
      "name": "OwnershipTransferred",
      "type": "event"
    },
    {
      "inputs": [],
      "name": "owner",
      "outputs": [
        {
          "internalType": "address",
          "name": "",
          "type": "address"
        }
      ],
      "stateMutability": "view",
      "type": "function"
    },
    {
      "inputs": [],
      "name": "renounceOwnership",
      "outputs": [],
      "stateMutability": "nonpayable",
      "type": "function"
    },
    {
      "inputs": [
        {
          "internalType": "address",
          "name": "newOwner",
          "type": "address"
        }
      ],
      "name": "transferOwnership",
      "outputs": [],
      "stateMutability": "nonpayable",
      "type": "function"
    },
    {
      "inputs": [
        {
          "internalType": "address",
          "name": "tokenAddress",
          "type": "address"
        },
        {
          "internalType": "uint256",
          "name": "tokenAmount",
          "type": "uint256"
        }
      ],
      "name": "recoverERC20",
      "outputs": [],
      "stateMutability": "nonpayable",
      "type": "function"
    }
  ],
  "bytecode": "0x608060405234801561001057600080fd5b50600061001b61006a565b600080546001600160a01b0319166001600160a01b0383169081178255604051929350917f8be0079c531659141344cd1fd0a4f28419497f9722a3daafe3b4186f6b6457e0908290a35061006e565b3390565b6103f68061007d6000396000f3fe608060405234801561001057600080fd5b506004361061004c5760003560e01c8063715018a6146100515780638980f11f1461005b5780638da5cb5b14610087578063f2fde38b146100ab575b600080fd5b6100596100d1565b005b6100596004803603604081101561007157600080fd5b506001600160a01b038135169060200135610185565b61008f61027d565b604080516001600160a01b039092168252519081900360200190f35b610059600480360360208110156100c157600080fd5b50356001600160a01b031661028c565b6100d9610396565b6000546001600160a01b0390811691161461013b576040805162461bcd60e51b815260206004820181905260248201527f4f776e61626c653a2063616c6c6572206973206e6f7420746865206f776e6572604482015290519081900360640190fd5b600080546040516001600160a01b03909116907f8be0079c531659141344cd1fd0a4f28419497f9722a3daafe3b4186f6b6457e0908390a3600080546001600160a01b0319169055565b61018d610396565b6000546001600160a01b039081169116146101ef576040805162461bcd60e51b815260206004820181905260248201527f4f776e61626c653a2063616c6c6572206973206e6f7420746865206f776e6572604482015290519081900360640190fd5b816001600160a01b031663a9059cbb61020661027d565b836040518363ffffffff1660e01b815260040180836001600160a01b0316815260200182815260200192505050602060405180830381600087803b15801561024d57600080fd5b505af1158015610261573d6000803e3d6000fd5b505050506040513d602081101561027757600080fd5b50505050565b6000546001600160a01b031690565b610294610396565b6000546001600160a01b039081169116146102f6576040805162461bcd60e51b815260206004820181905260248201527f4f776e61626c653a2063616c6c6572206973206e6f7420746865206f776e6572604482015290519081900360640190fd5b6001600160a01b03811661033b5760405162461bcd60e51b815260040180806020018281038252602681526020018061039b6026913960400191505060405180910390fd5b600080546040516001600160a01b03808516939216917f8be0079c531659141344cd1fd0a4f28419497f9722a3daafe3b4186f6b6457e091a3600080546001600160a01b0319166001600160a01b0392909216919091179055565b339056fe4f776e61626c653a206e6577206f776e657220697320746865207a65726f2061646472657373a264697066735822122045423567154e43c80ea6255bdb36285577911bb68e5d1867acb55e3972a8e76764736f6c63430007000033",
  "immutableReferences": {},
  "source": "// SPDX-License-Identifier: MIT\n\npragma solidity ^0.7.0;\n\nimport \"@openzeppelin/contracts/token/ERC20/ERC20.sol\";\nimport \"@openzeppelin/contracts/access/Ownable.sol\";\nimport \"@openzeppelin/contracts/token/ERC20/ERC20Burnable.sol\";\nimport \"@openzeppelin/contracts/token/ERC20/ERC20Capped.sol\";\nimport \"@openzeppelin/contracts/math/SafeMath.sol\"; \n\n/**\n * @title TokenRecover\n * @dev Allow to recover any ERC20 sent into the contract for error\n */\ncontract TokenRecover is Ownable {\n\n    /**\n     * @dev Remember that only owner can call so be careful when use on contracts generated from other contracts.\n     * @param tokenAddress The token contract address\n     * @param tokenAmount Number of tokens to be sent\n     */\n    function recoverERC20(address tokenAddress, uint256 tokenAmount) public onlyOwner {\n        IERC20(tokenAddress).transfer(owner(), tokenAmount);\n    }\n}\n\n\ncontract xDFIE  is ERC20Capped, ERC20Burnable, TokenRecover {\n    \n    // indicates if minting is finished\n    bool private _mintingFinished = false;\n\n    // indicates if transfer is enabled\n    bool private _transferEnabled = false;\n\n\n    /**\n     * @dev Emitted during finish minting\n     */ \n    event MintFinished();\n\n    /**\n     * @dev Emitted during transfer enabling\n     */\n    event TransferEnabled();\n\n    /**\n     * @dev Tokens can be minted only before minting finished.\n     */\n    modifier canMint() {\n        require(!_mintingFinished, \"xDFIE: minting is finished\");\n        _;\n    }\n\n    /**\n     * @dev Tokens can be moved only after if transfer enabled or if you are an approved operator.\n     */\n    modifier canTransfer(address from) {\n        require(\n            _transferEnabled ,\n            \"xDFIE: transfer is not enabled or from does not have the OPERATOR role\"\n        );\n        _;\n    }\n\n\n\n    /**\n     */\n    constructor()\n        ERC20Capped(3e8 * (uint256(10) ** 18))\n        ERC20(\"xDFIE Token\", \"xDFIe\")\n\n    {\n        uint8 decimals = 18;\n        uint256 cap = 3e8 * (uint256(10) ** 18);\n        uint256 initialSupply = 3e8 * (uint256(10) ** 18);\n        bool transferEnabled = true;\n        bool mintingFinished = true;\n\n        require(\n            mintingFinished == false || cap == initialSupply,\n            \"xDFIE: if finish minting, cap must be equal to initialSupply\"\n        );\n\n        _setupDecimals(decimals);\n\n        if (initialSupply > 0) {\n            _mint(owner(), initialSupply);\n        }\n\n        if (mintingFinished) {\n            finishMinting();\n        }\n\n        if (transferEnabled) {\n            enableTransfer();\n        }\n    }\n\n    /**\n     * @return if minting is finished or not.\n     */\n    function mintingFinished() public view returns (bool) {\n        return _mintingFinished;\n    }\n\n    /**\n     * @return if transfer is enabled or not.\n     */\n    function transferEnabled() public view returns (bool) {\n        return _transferEnabled;\n    }\n\n    /**\n     * @dev Function to mint tokens.\n     * @param to The address that will receive the minted tokens\n     * @param value The amount of tokens to mint\n     */\n    function mint(address to, uint256 value) public canMint {\n        _mint(to, value);\n    }\n\n    /**\n     * @dev Transfer tokens to a specified address.\n     * @param to The address to transfer to\n     * @param value The amount to be transferred\n     * @return A boolean that indicates if the operation was successful.\n     */\n    function transfer(address to, uint256 value) public virtual override(ERC20) canTransfer(_msgSender()) returns (bool) {\n        return super.transfer(to, value);\n    }\n\n    /**\n     * @dev Transfer tokens from one address to another.\n     * @param from The address which you want to send tokens from\n     * @param to The address which you want to transfer to\n     * @param value the amount of tokens to be transferred\n     * @return A boolean that indicates if the operation was successful.\n     */\n    function transferFrom(address from, address to, uint256 value) public virtual override(ERC20) canTransfer(from) returns (bool) {\n        return super.transferFrom(from, to, value);\n    }\n\n    /**\n     * @dev Function to stop minting new tokens.\n     */\n    function finishMinting() public canMint onlyOwner {\n        _mintingFinished = true;\n\n        emit MintFinished();\n    }\n\n    /**\n     * @dev Function to enable transfers.\n     */\n    function enableTransfer() public onlyOwner {\n        _transferEnabled = true;\n\n        emit TransferEnabled();\n    }\n\n    /**\n     * @dev See {ERC20-_beforeTokenTransfer}.\n     */\n    function _beforeTokenTransfer(address from, address to, uint256 amount) internal virtual override(ERC20, ERC20Capped) {\n        super._beforeTokenTransfer(from, to, amount);\n    }\n\n\n\n}",
  "sourcePath": "/home/rs/work/xDFIE/contracts/xDFIE.sol",
  "compiler": {
    "name": "solc",
    "version": "0.7.0+commit.9e61f92b.Emscripten.clang"
  },
  "schemaVersion": "3.2.5",
  "updatedAt": "2020-09-24T17:26:55.239Z",
  "devdoc": {
    "details": "Allow to recover any ERC20 sent into the contract for error",
    "kind": "dev",
    "methods": {
      "owner()": {
        "details": "Returns the address of the current owner."
      },
      "recoverERC20(address,uint256)": {
        "details": "Remember that only owner can call so be careful when use on contracts generated from other contracts.",
        "params": {
          "tokenAddress": "The token contract address",
          "tokenAmount": "Number of tokens to be sent"
        }
      },
      "renounceOwnership()": {
        "details": "Leaves the contract without owner. It will not be possible to call `onlyOwner` functions anymore. Can only be called by the current owner. NOTE: Renouncing ownership will leave the contract without an owner, thereby removing any functionality that is only available to the owner."
      },
      "transferOwnership(address)": {
        "details": "Transfers ownership of the contract to a new account (`newOwner`). Can only be called by the current owner."
      }
    },
    "title": "TokenRecover",
    "version": 1
  },
  "userdoc": {
    "kind": "user",
    "methods": {},
    "version": 1
  }
}