{
  "contractName": "xDFIE",
  "abi": [
    {
      "inputs": [],
      "stateMutability": "nonpayable",
      "type": "constructor"
    },
    {
      "anonymous": false,
      "inputs": [
        {
          "indexed": true,
          "internalType": "address",
          "name": "owner",
          "type": "address"
        },
        {
          "indexed": true,
          "internalType": "address",
          "name": "spender",
          "type": "address"
        },
        {
          "indexed": false,
          "internalType": "uint256",
          "name": "value",
          "type": "uint256"
        }
      ],
      "name": "Approval",
      "type": "event"
    },
    {
      "anonymous": false,
      "inputs": [],
      "name": "MintFinished",
      "type": "event"
    },
    {
      "anonymous": false,
      "inputs": [
        {
          "indexed": true,
          "internalType": "address",
          "name": "previousOwner",
          "type": "address"
        },
        {
          "indexed": true,
          "internalType": "address",
          "name": "newOwner",
          "type": "address"
        }
      ],
      "name": "OwnershipTransferred",
      "type": "event"
    },
    {
      "anonymous": false,
      "inputs": [
        {
          "indexed": true,
          "internalType": "address",
          "name": "from",
          "type": "address"
        },
        {
          "indexed": true,
          "internalType": "address",
          "name": "to",
          "type": "address"
        },
        {
          "indexed": false,
          "internalType": "uint256",
          "name": "value",
          "type": "uint256"
        }
      ],
      "name": "Transfer",
      "type": "event"
    },
    {
      "anonymous": false,
      "inputs": [],
      "name": "TransferEnabled",
      "type": "event"
    },
    {
      "inputs": [
        {
          "internalType": "address",
          "name": "owner",
          "type": "address"
        },
        {
          "internalType": "address",
          "name": "spender",
          "type": "address"
        }
      ],
      "name": "allowance",
      "outputs": [
        {
          "internalType": "uint256",
          "name": "",
          "type": "uint256"
        }
      ],
      "stateMutability": "view",
      "type": "function",
      "constant": true
    },
    {
      "inputs": [
        {
          "internalType": "address",
          "name": "spender",
          "type": "address"
        },
        {
          "internalType": "uint256",
          "name": "amount",
          "type": "uint256"
        }
      ],
      "name": "approve",
      "outputs": [
        {
          "internalType": "bool",
          "name": "",
          "type": "bool"
        }
      ],
      "stateMutability": "nonpayable",
      "type": "function"
    },
    {
      "inputs": [
        {
          "internalType": "address",
          "name": "account",
          "type": "address"
        }
      ],
      "name": "balanceOf",
      "outputs": [
        {
          "internalType": "uint256",
          "name": "",
          "type": "uint256"
        }
      ],
      "stateMutability": "view",
      "type": "function",
      "constant": true
    },
    {
      "inputs": [
        {
          "internalType": "uint256",
          "name": "amount",
          "type": "uint256"
        }
      ],
      "name": "burn",
      "outputs": [],
      "stateMutability": "nonpayable",
      "type": "function"
    },
    {
      "inputs": [
        {
          "internalType": "address",
          "name": "account",
          "type": "address"
        },
        {
          "internalType": "uint256",
          "name": "amount",
          "type": "uint256"
        }
      ],
      "name": "burnFrom",
      "outputs": [],
      "stateMutability": "nonpayable",
      "type": "function"
    },
    {
      "inputs": [],
      "name": "cap",
      "outputs": [
        {
          "internalType": "uint256",
          "name": "",
          "type": "uint256"
        }
      ],
      "stateMutability": "view",
      "type": "function",
      "constant": true
    },
    {
      "inputs": [],
      "name": "decimals",
      "outputs": [
        {
          "internalType": "uint8",
          "name": "",
          "type": "uint8"
        }
      ],
      "stateMutability": "view",
      "type": "function",
      "constant": true
    },
    {
      "inputs": [
        {
          "internalType": "address",
          "name": "spender",
          "type": "address"
        },
        {
          "internalType": "uint256",
          "name": "subtractedValue",
          "type": "uint256"
        }
      ],
      "name": "decreaseAllowance",
      "outputs": [
        {
          "internalType": "bool",
          "name": "",
          "type": "bool"
        }
      ],
      "stateMutability": "nonpayable",
      "type": "function"
    },
    {
      "inputs": [
        {
          "internalType": "address",
          "name": "spender",
          "type": "address"
        },
        {
          "internalType": "uint256",
          "name": "addedValue",
          "type": "uint256"
        }
      ],
      "name": "increaseAllowance",
      "outputs": [
        {
          "internalType": "bool",
          "name": "",
          "type": "bool"
        }
      ],
      "stateMutability": "nonpayable",
      "type": "function"
    },
    {
      "inputs": [],
      "name": "name",
      "outputs": [
        {
          "internalType": "string",
          "name": "",
          "type": "string"
        }
      ],
      "stateMutability": "view",
      "type": "function",
      "constant": true
    },
    {
      "inputs": [],
      "name": "owner",
      "outputs": [
        {
          "internalType": "address",
          "name": "",
          "type": "address"
        }
      ],
      "stateMutability": "view",
      "type": "function",
      "constant": true
    },
    {
      "inputs": [
        {
          "internalType": "address",
          "name": "tokenAddress",
          "type": "address"
        },
        {
          "internalType": "uint256",
          "name": "tokenAmount",
          "type": "uint256"
        }
      ],
      "name": "recoverERC20",
      "outputs": [],
      "stateMutability": "nonpayable",
      "type": "function"
    },
    {
      "inputs": [],
      "name": "renounceOwnership",
      "outputs": [],
      "stateMutability": "nonpayable",
      "type": "function"
    },
    {
      "inputs": [],
      "name": "symbol",
      "outputs": [
        {
          "internalType": "string",
          "name": "",
          "type": "string"
        }
      ],
      "stateMutability": "view",
      "type": "function",
      "constant": true
    },
    {
      "inputs": [],
      "name": "totalSupply",
      "outputs": [
        {
          "internalType": "uint256",
          "name": "",
          "type": "uint256"
        }
      ],
      "stateMutability": "view",
      "type": "function",
      "constant": true
    },
    {
      "inputs": [
        {
          "internalType": "address",
          "name": "newOwner",
          "type": "address"
        }
      ],
      "name": "transferOwnership",
      "outputs": [],
      "stateMutability": "nonpayable",
      "type": "function"
    },
    {
      "inputs": [],
      "name": "mintingFinished",
      "outputs": [
        {
          "internalType": "bool",
          "name": "",
          "type": "bool"
        }
      ],
      "stateMutability": "view",
      "type": "function",
      "constant": true
    },
    {
      "inputs": [],
      "name": "transferEnabled",
      "outputs": [
        {
          "internalType": "bool",
          "name": "",
          "type": "bool"
        }
      ],
      "stateMutability": "view",
      "type": "function",
      "constant": true
    },
    {
      "inputs": [
        {
          "internalType": "address",
          "name": "to",
          "type": "address"
        },
        {
          "internalType": "uint256",
          "name": "value",
          "type": "uint256"
        }
      ],
      "name": "mint",
      "outputs": [],
      "stateMutability": "nonpayable",
      "type": "function"
    },
    {
      "inputs": [
        {
          "internalType": "address",
          "name": "to",
          "type": "address"
        },
        {
          "internalType": "uint256",
          "name": "value",
          "type": "uint256"
        }
      ],
      "name": "transfer",
      "outputs": [
        {
          "internalType": "bool",
          "name": "",
          "type": "bool"
        }
      ],
      "stateMutability": "nonpayable",
      "type": "function"
    },
    {
      "inputs": [
        {
          "internalType": "address",
          "name": "from",
          "type": "address"
        },
        {
          "internalType": "address",
          "name": "to",
          "type": "address"
        },
        {
          "internalType": "uint256",
          "name": "value",
          "type": "uint256"
        }
      ],
      "name": "transferFrom",
      "outputs": [
        {
          "internalType": "bool",
          "name": "",
          "type": "bool"
        }
      ],
      "stateMutability": "nonpayable",
      "type": "function"
    },
    {
      "inputs": [],
      "name": "finishMinting",
      "outputs": [],
      "stateMutability": "nonpayable",
      "type": "function"
    },
    {
      "inputs": [],
      "name": "enableTransfer",
      "outputs": [],
      "stateMutability": "nonpayable",
      "type": "function"
    }
  ],
  "bytecode": "0x60806040526007805461ffff60a01b191690553480156200001f57600080fd5b50604080518082018252600b81526a3c222324a2902a37b5b2b760a91b602080830191825283518085019094526005845264784446496560d81b9084015281516af8277896582678ac00000093916200007c9160039190620005aa565b50805162000092906004906020840190620005aa565b50506005805460ff191660121790555080620000f5576040805162461bcd60e51b815260206004820152601560248201527f45524332304361707065643a2063617020697320300000000000000000000000604482015290519081900360640190fd5b600655600062000104620001b8565b600780546001600160a01b0319166001600160a01b038316908117909155604051919250906000907f8be0079c531659141344cd1fd0a4f28419497f9722a3daafe3b4186f6b6457e0908290a35060126af8277896582678ac000000806001806200016f85620001bc565b82156200018b576200018b62000184620001d2565b84620001e1565b80156200019c576200019c620002f0565b8115620001ad57620001ad620003ea565b505050505062000646565b3390565b6005805460ff191660ff92909216919091179055565b6007546001600160a01b031690565b6001600160a01b0382166200023d576040805162461bcd60e51b815260206004820152601f60248201527f45524332303a206d696e7420746f20746865207a65726f206164647265737300604482015290519081900360640190fd5b6200024b6000838362000484565b6200026781600254620004a160201b62000c7f1790919060201c565b6002556001600160a01b038216600090815260208181526040909120546200029a91839062000c7f620004a1821b17901c565b6001600160a01b0383166000818152602081815260408083209490945583518581529351929391927fddf252ad1be2c89b69c2b068fc378daa952ba7f163c4a11628f55a4df523b3ef9281900390910190a35050565b600754600160a01b900460ff161562000350576040805162461bcd60e51b815260206004820152601a60248201527f78444649453a206d696e74696e672069732066696e6973686564000000000000604482015290519081900360640190fd5b6200035a620001b8565b6007546001600160a01b03908116911614620003ac576040805162461bcd60e51b8152602060048201819052602482015260008051602062001b8e833981519152604482015290519081900360640190fd5b6007805460ff60a01b1916600160a01b1790556040517fae5184fba832cb2b1f702aca6117b8d265eaf03ad33eb133f19dde0f5920fa0890600090a1565b620003f4620001b8565b6007546001600160a01b0390811691161462000446576040805162461bcd60e51b8152602060048201819052602482015260008051602062001b8e833981519152604482015290519081900360640190fd5b6007805460ff60a81b1916600160a81b1790556040517f75fce015c314a132947a3e42f6ab79ab8e05397dabf35b4d742dea228bbadc2d90600090a1565b6200049c8383836200050360201b62000ce01760201c565b505050565b600082820183811015620004fc576040805162461bcd60e51b815260206004820152601b60248201527f536166654d6174683a206164646974696f6e206f766572666c6f770000000000604482015290519081900360640190fd5b9392505050565b6200051b8383836200049c60201b620007a91760201c565b6001600160a01b0383166200049c5760065462000550826200053c620005a4565b620004a160201b62000c7f1790919060201c565b11156200049c576040805162461bcd60e51b815260206004820152601960248201527f45524332304361707065643a2063617020657863656564656400000000000000604482015290519081900360640190fd5b60025490565b828054600181600116156101000203166002900490600052602060002090601f016020900481019282601f10620005ed57805160ff19168380011785556200061d565b828001600101855582156200061d579182015b828111156200061d57825182559160200191906001019062000600565b506200062b9291506200062f565b5090565b5b808211156200062b576000815560010162000630565b61153880620006566000396000f3fe608060405234801561001057600080fd5b506004361061014d5760003560e01c806370a08231116100c357806395d89b411161007c57806395d89b41146103be578063a457c2d7146103c6578063a9059cbb146103f2578063dd62ed3e1461041e578063f1b50c1d1461044c578063f2fde38b146104545761014d565b806370a082311461030c578063715018a61461033257806379cc67901461033a5780637d64bcb4146103665780638980f11f1461036e5780638da5cb5b1461039a5761014d565b8063313ce56711610115578063313ce56714610267578063355274ea14610285578063395093511461028d57806340c10f19146102b957806342966c68146102e75780634cd412d5146103045761014d565b806305d2035b1461015257806306fdde031461016e578063095ea7b3146101eb57806318160ddd1461021757806323b872dd14610231575b600080fd5b61015a61047a565b604080519115158252519081900360200190f35b61017661048a565b6040805160208082528351818301528351919283929083019185019080838360005b838110156101b0578181015183820152602001610198565b50505050905090810190601f1680156101dd5780820380516001836020036101000a031916815260200191505b509250505060405180910390f35b61015a6004803603604081101561020157600080fd5b506001600160a01b038135169060200135610520565b61021f61053d565b60408051918252519081900360200190f35b61015a6004803603606081101561024757600080fd5b506001600160a01b03813581169160208101359091169060400135610543565b61026f6105a4565b6040805160ff9092168252519081900360200190f35b61021f6105ad565b61015a600480360360408110156102a357600080fd5b506001600160a01b0381351690602001356105b3565b6102e5600480360360408110156102cf57600080fd5b506001600160a01b038135169060200135610606565b005b6102e5600480360360208110156102fd57600080fd5b5035610673565b61015a610687565b61021f6004803603602081101561032257600080fd5b50356001600160a01b0316610697565b6102e56106b2565b6102e56004803603604081101561035057600080fd5b506001600160a01b038135169060200135610754565b6102e56107ae565b6102e56004803603604081101561038457600080fd5b506001600160a01b0381351690602001356108a3565b6103a2610989565b604080516001600160a01b039092168252519081900360200190f35b610176610998565b61015a600480360360408110156103dc57600080fd5b506001600160a01b0381351690602001356109f9565b61015a6004803603604081101561040857600080fd5b506001600160a01b038135169060200135610a61565b61021f6004803603604081101561043457600080fd5b506001600160a01b0381358116916020013516610ac5565b6102e5610af0565b6102e56004803603602081101561046a57600080fd5b50356001600160a01b0316610b86565b600754600160a01b900460ff1690565b60038054604080516020601f60026000196101006001881615020190951694909404938401819004810282018101909252828152606093909290918301828280156105165780601f106104eb57610100808354040283529160200191610516565b820191906000526020600020905b8154815290600101906020018083116104f957829003601f168201915b5050505050905090565b600061053461052d610d61565b8484610d65565b50600192915050565b60025490565b6007546000908490600160a81b900460ff166105905760405162461bcd60e51b815260040180806020018281038252604681526020018061139c6046913960600191505060405180910390fd5b61059b858585610e51565b95945050505050565b60055460ff1690565b60065490565b60006105346105c0610d61565b8461060185600160006105d1610d61565b6001600160a01b03908116825260208083019390935260409182016000908120918c168152925290205490610c7f565b610d65565b600754600160a01b900460ff1615610665576040805162461bcd60e51b815260206004820152601a60248201527f78444649453a206d696e74696e672069732066696e6973686564000000000000604482015290519081900360640190fd5b61066f8282610ed3565b5050565b61068461067e610d61565b82610fc3565b50565b600754600160a81b900460ff1690565b6001600160a01b031660009081526020819052604090205490565b6106ba610d61565b6007546001600160a01b0390811691161461070a576040805162461bcd60e51b81526020600482018190526024820152600080516020611430833981519152604482015290519081900360640190fd5b6007546040516000916001600160a01b0316907f8be0079c531659141344cd1fd0a4f28419497f9722a3daafe3b4186f6b6457e0908390a3600780546001600160a01b0319169055565b600061078b82604051806060016040528060248152602001611450602491396107848661077f610d61565b610ac5565b91906110bf565b905061079f83610799610d61565b83610d65565b6107a98383610fc3565b505050565b600754600160a01b900460ff161561080d576040805162461bcd60e51b815260206004820152601a60248201527f78444649453a206d696e74696e672069732066696e6973686564000000000000604482015290519081900360640190fd5b610815610d61565b6007546001600160a01b03908116911614610865576040805162461bcd60e51b81526020600482018190526024820152600080516020611430833981519152604482015290519081900360640190fd5b6007805460ff60a01b1916600160a01b1790556040517fae5184fba832cb2b1f702aca6117b8d265eaf03ad33eb133f19dde0f5920fa0890600090a1565b6108ab610d61565b6007546001600160a01b039081169116146108fb576040805162461bcd60e51b81526020600482018190526024820152600080516020611430833981519152604482015290519081900360640190fd5b816001600160a01b031663a9059cbb610912610989565b836040518363ffffffff1660e01b815260040180836001600160a01b0316815260200182815260200192505050602060405180830381600087803b15801561095957600080fd5b505af115801561096d573d6000803e3d6000fd5b505050506040513d602081101561098357600080fd5b50505050565b6007546001600160a01b031690565b60048054604080516020601f60026000196101006001881615020190951694909404938401819004810282018101909252828152606093909290918301828280156105165780601f106104eb57610100808354040283529160200191610516565b6000610534610a06610d61565b84610601856040518060600160405280602581526020016114de6025913960016000610a30610d61565b6001600160a01b03908116825260208083019390935260409182016000908120918d168152925290205491906110bf565b6000610a6b610d61565b600754600160a81b900460ff16610ab35760405162461bcd60e51b815260040180806020018281038252604681526020018061139c6046913960600191505060405180910390fd5b610abd8484611156565b949350505050565b6001600160a01b03918216600090815260016020908152604080832093909416825291909152205490565b610af8610d61565b6007546001600160a01b03908116911614610b48576040805162461bcd60e51b81526020600482018190526024820152600080516020611430833981519152604482015290519081900360640190fd5b6007805460ff60a81b1916600160a81b1790556040517f75fce015c314a132947a3e42f6ab79ab8e05397dabf35b4d742dea228bbadc2d90600090a1565b610b8e610d61565b6007546001600160a01b03908116911614610bde576040805162461bcd60e51b81526020600482018190526024820152600080516020611430833981519152604482015290519081900360640190fd5b6001600160a01b038116610c235760405162461bcd60e51b81526004018080602001828103825260268152602001806113546026913960400191505060405180910390fd5b6007546040516001600160a01b038084169216907f8be0079c531659141344cd1fd0a4f28419497f9722a3daafe3b4186f6b6457e090600090a3600780546001600160a01b0319166001600160a01b0392909216919091179055565b600082820183811015610cd9576040805162461bcd60e51b815260206004820152601b60248201527f536166654d6174683a206164646974696f6e206f766572666c6f770000000000604482015290519081900360640190fd5b9392505050565b610ceb8383836107a9565b6001600160a01b0383166107a957600654610d0e82610d0861053d565b90610c7f565b11156107a9576040805162461bcd60e51b815260206004820152601960248201527f45524332304361707065643a2063617020657863656564656400000000000000604482015290519081900360640190fd5b3390565b6001600160a01b038316610daa5760405162461bcd60e51b81526004018080602001828103825260248152602001806114ba6024913960400191505060405180910390fd5b6001600160a01b038216610def5760405162461bcd60e51b815260040180806020018281038252602281526020018061137a6022913960400191505060405180910390fd5b6001600160a01b03808416600081815260016020908152604080832094871680845294825291829020859055815185815291517f8c5be1e5ebec7d5bd14f71427d1e84f3dd0314c0f7b2291e5b200ac8c7c3b9259281900390910190a3505050565b6000610e5e848484611166565b610ec984610e6a610d61565b61060185604051806060016040528060288152602001611408602891396001600160a01b038a16600090815260016020526040812090610ea8610d61565b6001600160a01b0316815260208101919091526040016000205491906110bf565b5060019392505050565b6001600160a01b038216610f2e576040805162461bcd60e51b815260206004820152601f60248201527f45524332303a206d696e7420746f20746865207a65726f206164647265737300604482015290519081900360640190fd5b610f3a600083836112c1565b600254610f479082610c7f565b6002556001600160a01b038216600090815260208190526040902054610f6d9082610c7f565b6001600160a01b0383166000818152602081815260408083209490945583518581529351929391927fddf252ad1be2c89b69c2b068fc378daa952ba7f163c4a11628f55a4df523b3ef9281900390910190a35050565b6001600160a01b0382166110085760405162461bcd60e51b81526004018080602001828103825260218152602001806114746021913960400191505060405180910390fd5b611014826000836112c1565b61105181604051806060016040528060228152602001611332602291396001600160a01b03851660009081526020819052604090205491906110bf565b6001600160a01b03831660009081526020819052604090205560025461107790826112cc565b6002556040805182815290516000916001600160a01b038516917fddf252ad1be2c89b69c2b068fc378daa952ba7f163c4a11628f55a4df523b3ef9181900360200190a35050565b6000818484111561114e5760405162461bcd60e51b81526004018080602001828103825283818151815260200191508051906020019080838360005b838110156111135781810151838201526020016110fb565b50505050905090810190601f1680156111405780820380516001836020036101000a031916815260200191505b509250505060405180910390fd5b505050900390565b6000610534611163610d61565b84845b6001600160a01b0383166111ab5760405162461bcd60e51b81526004018080602001828103825260258152602001806114956025913960400191505060405180910390fd5b6001600160a01b0382166111f05760405162461bcd60e51b815260040180806020018281038252602381526020018061130f6023913960400191505060405180910390fd5b6111fb8383836112c1565b611238816040518060600160405280602681526020016113e2602691396001600160a01b03861660009081526020819052604090205491906110bf565b6001600160a01b0380851660009081526020819052604080822093909355908416815220546112679082610c7f565b6001600160a01b038084166000818152602081815260409182902094909455805185815290519193928716927fddf252ad1be2c89b69c2b068fc378daa952ba7f163c4a11628f55a4df523b3ef92918290030190a3505050565b6107a9838383610ce0565b6000610cd983836040518060400160405280601e81526020017f536166654d6174683a207375627472616374696f6e206f766572666c6f7700008152506110bf56fe45524332303a207472616e7366657220746f20746865207a65726f206164647265737345524332303a206275726e20616d6f756e7420657863656564732062616c616e63654f776e61626c653a206e6577206f776e657220697320746865207a65726f206164647265737345524332303a20617070726f766520746f20746865207a65726f206164647265737378444649453a207472616e73666572206973206e6f7420656e61626c6564206f722066726f6d20646f6573206e6f74206861766520746865204f50455241544f5220726f6c6545524332303a207472616e7366657220616d6f756e7420657863656564732062616c616e636545524332303a207472616e7366657220616d6f756e74206578636565647320616c6c6f77616e63654f776e61626c653a2063616c6c6572206973206e6f7420746865206f776e657245524332303a206275726e20616d6f756e74206578636565647320616c6c6f77616e636545524332303a206275726e2066726f6d20746865207a65726f206164647265737345524332303a207472616e736665722066726f6d20746865207a65726f206164647265737345524332303a20617070726f76652066726f6d20746865207a65726f206164647265737345524332303a2064656372656173656420616c6c6f77616e63652062656c6f77207a65726fa264697066735822122060563b6ad5babb9901e40592a6d600effec1ec6a8e8faeffeb41e21cc1402c8564736f6c634300070000334f776e61626c653a2063616c6c6572206973206e6f7420746865206f776e6572",
  "immutableReferences": {},
  "source": "// SPDX-License-Identifier: MIT\n\npragma solidity ^0.7.0;\n\nimport \"@openzeppelin/contracts/token/ERC20/ERC20.sol\";\nimport \"@openzeppelin/contracts/access/Ownable.sol\";\nimport \"@openzeppelin/contracts/token/ERC20/ERC20Burnable.sol\";\nimport \"@openzeppelin/contracts/token/ERC20/ERC20Capped.sol\";\nimport \"@openzeppelin/contracts/math/SafeMath.sol\"; \n\n/**\n * @title TokenRecover\n * @dev Allow to recover any ERC20 sent into the contract for error\n */\ncontract TokenRecover is Ownable {\n\n    /**\n     * @dev Remember that only owner can call so be careful when use on contracts generated from other contracts.\n     * @param tokenAddress The token contract address\n     * @param tokenAmount Number of tokens to be sent\n     */\n    function recoverERC20(address tokenAddress, uint256 tokenAmount) public onlyOwner {\n        IERC20(tokenAddress).transfer(owner(), tokenAmount);\n    }\n}\n\n\ncontract xDFIE  is ERC20Capped, ERC20Burnable, TokenRecover {\n    \n    // indicates if minting is finished\n    bool private _mintingFinished = false;\n\n    // indicates if transfer is enabled\n    bool private _transferEnabled = false;\n\n\n    /**\n     * @dev Emitted during finish minting\n     */ \n    event MintFinished();\n\n    /**\n     * @dev Emitted during transfer enabling\n     */\n    event TransferEnabled();\n\n    /**\n     * @dev Tokens can be minted only before minting finished.\n     */\n    modifier canMint() {\n        require(!_mintingFinished, \"xDFIE: minting is finished\");\n        _;\n    }\n\n    /**\n     * @dev Tokens can be moved only after if transfer enabled or if you are an approved operator.\n     */\n    modifier canTransfer(address from) {\n        require(\n            _transferEnabled ,\n            \"xDFIE: transfer is not enabled or from does not have the OPERATOR role\"\n        );\n        _;\n    }\n\n\n\n    /**\n     */\n    constructor()\n        ERC20Capped(3e8 * (uint256(10) ** 18))\n        ERC20(\"xDFIE Token\", \"xDFIe\")\n\n    {\n        uint8 decimals = 18;\n        uint256 cap = 3e8 * (uint256(10) ** 18);\n        uint256 initialSupply = 3e8 * (uint256(10) ** 18);\n        bool transferEnabled = true;\n        bool mintingFinished = true;\n\n        require(\n            mintingFinished == false || cap == initialSupply,\n            \"xDFIE: if finish minting, cap must be equal to initialSupply\"\n        );\n\n        _setupDecimals(decimals);\n\n        if (initialSupply > 0) {\n            _mint(owner(), initialSupply);\n        }\n\n        if (mintingFinished) {\n            finishMinting();\n        }\n\n        if (transferEnabled) {\n            enableTransfer();\n        }\n    }\n\n    /**\n     * @return if minting is finished or not.\n     */\n    function mintingFinished() public view returns (bool) {\n        return _mintingFinished;\n    }\n\n    /**\n     * @return if transfer is enabled or not.\n     */\n    function transferEnabled() public view returns (bool) {\n        return _transferEnabled;\n    }\n\n    /**\n     * @dev Function to mint tokens.\n     * @param to The address that will receive the minted tokens\n     * @param value The amount of tokens to mint\n     */\n    function mint(address to, uint256 value) public canMint {\n        _mint(to, value);\n    }\n\n    /**\n     * @dev Transfer tokens to a specified address.\n     * @param to The address to transfer to\n     * @param value The amount to be transferred\n     * @return A boolean that indicates if the operation was successful.\n     */\n    function transfer(address to, uint256 value) public virtual override(ERC20) canTransfer(_msgSender()) returns (bool) {\n        return super.transfer(to, value);\n    }\n\n    /**\n     * @dev Transfer tokens from one address to another.\n     * @param from The address which you want to send tokens from\n     * @param to The address which you want to transfer to\n     * @param value the amount of tokens to be transferred\n     * @return A boolean that indicates if the operation was successful.\n     */\n    function transferFrom(address from, address to, uint256 value) public virtual override(ERC20) canTransfer(from) returns (bool) {\n        return super.transferFrom(from, to, value);\n    }\n\n    /**\n     * @dev Function to stop minting new tokens.\n     */\n    function finishMinting() public canMint onlyOwner {\n        _mintingFinished = true;\n\n        emit MintFinished();\n    }\n\n    /**\n     * @dev Function to enable transfers.\n     */\n    function enableTransfer() public onlyOwner {\n        _transferEnabled = true;\n\n        emit TransferEnabled();\n    }\n\n    /**\n     * @dev See {ERC20-_beforeTokenTransfer}.\n     */\n    function _beforeTokenTransfer(address from, address to, uint256 amount) internal virtual override(ERC20, ERC20Capped) {\n        super._beforeTokenTransfer(from, to, amount);\n    }\n\n\n\n}",
  "sourcePath": "/home/rs/work/xDFIE/contracts/xDFIE.sol",
  "compiler": {
    "name": "solc",
    "version": "0.7.0+commit.9e61f92b.Emscripten.clang"
  },
  "schemaVersion": "3.2.5",
  "updatedAt": "2020-09-24T18:20:20.205Z",
  "networkType": "ethereum",
  "devdoc": {
    "events": {
      "MintFinished()": {
        "details": "Emitted during finish minting"
      },
      "TransferEnabled()": {
        "details": "Emitted during transfer enabling"
      }
    },
    "kind": "dev",
    "methods": {
      "allowance(address,address)": {
        "details": "See {IERC20-allowance}."
      },
      "approve(address,uint256)": {
        "details": "See {IERC20-approve}. Requirements: - `spender` cannot be the zero address."
      },
      "balanceOf(address)": {
        "details": "See {IERC20-balanceOf}."
      },
      "burn(uint256)": {
        "details": "Destroys `amount` tokens from the caller. See {ERC20-_burn}."
      },
      "burnFrom(address,uint256)": {
        "details": "Destroys `amount` tokens from `account`, deducting from the caller's allowance. See {ERC20-_burn} and {ERC20-allowance}. Requirements: - the caller must have allowance for ``accounts``'s tokens of at least `amount`."
      },
      "cap()": {
        "details": "Returns the cap on the token's total supply."
      },
      "decimals()": {
        "details": "Returns the number of decimals used to get its user representation. For example, if `decimals` equals `2`, a balance of `505` tokens should be displayed to a user as `5,05` (`505 / 10 ** 2`). Tokens usually opt for a value of 18, imitating the relationship between Ether and Wei. This is the value {ERC20} uses, unless {_setupDecimals} is called. NOTE: This information is only used for _display_ purposes: it in no way affects any of the arithmetic of the contract, including {IERC20-balanceOf} and {IERC20-transfer}."
      },
      "decreaseAllowance(address,uint256)": {
        "details": "Atomically decreases the allowance granted to `spender` by the caller. This is an alternative to {approve} that can be used as a mitigation for problems described in {IERC20-approve}. Emits an {Approval} event indicating the updated allowance. Requirements: - `spender` cannot be the zero address. - `spender` must have allowance for the caller of at least `subtractedValue`."
      },
      "enableTransfer()": {
        "details": "Function to enable transfers."
      },
      "finishMinting()": {
        "details": "Function to stop minting new tokens."
      },
      "increaseAllowance(address,uint256)": {
        "details": "Atomically increases the allowance granted to `spender` by the caller. This is an alternative to {approve} that can be used as a mitigation for problems described in {IERC20-approve}. Emits an {Approval} event indicating the updated allowance. Requirements: - `spender` cannot be the zero address."
      },
      "mint(address,uint256)": {
        "details": "Function to mint tokens.",
        "params": {
          "to": "The address that will receive the minted tokens",
          "value": "The amount of tokens to mint"
        }
      },
      "mintingFinished()": {
        "returns": {
          "_0": "if minting is finished or not."
        }
      },
      "name()": {
        "details": "Returns the name of the token."
      },
      "owner()": {
        "details": "Returns the address of the current owner."
      },
      "recoverERC20(address,uint256)": {
        "details": "Remember that only owner can call so be careful when use on contracts generated from other contracts.",
        "params": {
          "tokenAddress": "The token contract address",
          "tokenAmount": "Number of tokens to be sent"
        }
      },
      "renounceOwnership()": {
        "details": "Leaves the contract without owner. It will not be possible to call `onlyOwner` functions anymore. Can only be called by the current owner. NOTE: Renouncing ownership will leave the contract without an owner, thereby removing any functionality that is only available to the owner."
      },
      "symbol()": {
        "details": "Returns the symbol of the token, usually a shorter version of the name."
      },
      "totalSupply()": {
        "details": "See {IERC20-totalSupply}."
      },
      "transfer(address,uint256)": {
        "details": "Transfer tokens to a specified address.",
        "params": {
          "to": "The address to transfer to",
          "value": "The amount to be transferred"
        },
        "returns": {
          "_0": "A boolean that indicates if the operation was successful."
        }
      },
      "transferEnabled()": {
        "returns": {
          "_0": "if transfer is enabled or not."
        }
      },
      "transferFrom(address,address,uint256)": {
        "details": "Transfer tokens from one address to another.",
        "params": {
          "from": "The address which you want to send tokens from",
          "to": "The address which you want to transfer to",
          "value": "the amount of tokens to be transferred"
        },
        "returns": {
          "_0": "A boolean that indicates if the operation was successful."
        }
      },
      "transferOwnership(address)": {
        "details": "Transfers ownership of the contract to a new account (`newOwner`). Can only be called by the current owner."
      }
    },
    "version": 1
  },
  "userdoc": {
    "kind": "user",
    "methods": {},
    "version": 1
  }
}